{
  "_format": "hh-sol-artifact-1",
  "contractName": "CrossZero",
  "sourceName": "contracts/christ-zero.sol",
  "abi": [
    {
      "inputs": [
        {
          "internalType": "uint256",
          "name": "_height",
          "type": "uint256"
        },
        {
          "internalType": "uint256",
          "name": "_width",
          "type": "uint256"
        }
      ],
      "stateMutability": "nonpayable",
      "type": "constructor"
    },
    {
      "anonymous": false,
      "inputs": [
        {
          "indexed": false,
          "internalType": "address",
          "name": "winner",
          "type": "address"
        }
      ],
      "name": "Win",
      "type": "event"
    },
    {
      "inputs": [
        {
          "internalType": "address",
          "name": "_player",
          "type": "address"
        }
      ],
      "name": "addPlayer",
      "outputs": [],
      "stateMutability": "nonpayable",
      "type": "function"
    },
    {
      "inputs": [
        {
          "internalType": "uint256",
          "name": "x",
          "type": "uint256"
        },
        {
          "internalType": "uint256",
          "name": "y",
          "type": "uint256"
        }
      ],
      "name": "move",
      "outputs": [],
      "stateMutability": "nonpayable",
      "type": "function"
    }
  ],
  "bytecode": "0x608060405234801561001057600080fd5b50604051610e86380380610e868339818101604052604081101561003357600080fd5b81019080805190602001909291908051906020019092919050505060016002838161005a57fe5b06148015610072575060016002828161006f57fe5b06145b801561007d57508082145b6100ca576040517f08c379a0000000000000000000000000000000000000000000000000000000008152600401808060200182810382526000815260200160200191505060405180910390fd5b81600281905550806003819055505050610d9d806100e96000396000f3fe608060405234801561001057600080fd5b50600436106100365760003560e01c80630867408f1461003b578063b1275f9a14610073575b600080fd5b6100716004803603604081101561005157600080fd5b8101908080359060200190929190803590602001909291905050506100b7565b005b6100b56004803603602081101561008957600080fd5b81019080803573ffffffffffffffffffffffffffffffffffffffff1690602001909291905050506106b5565b005b6100c560025460035461071b565b5060046000838152602001908152602001600020600082815260200190815260200160002060009054906101000a900460ff161561014e576040517f08c379a0000000000000000000000000000000000000000000000000000000008152600401808060200182810382526022815260200180610d466022913960400191505060405180910390fd5b6000808154811061015b57fe5b9060005260206000200160009054906101000a900473ffffffffffffffffffffffffffffffffffffffff1673ffffffffffffffffffffffffffffffffffffffff163373ffffffffffffffffffffffffffffffffffffffff1614156103ff57600560003373ffffffffffffffffffffffffffffffffffffffff1673ffffffffffffffffffffffffffffffffffffffff16815260200190815260200160002060009054906101000a900460ff1615610279576040517f08c379a00000000000000000000000000000000000000000000000000000000081526004018080602001828103825260138152602001807f706c61796572312063616e6e6f74206d6f76650000000000000000000000000081525060200191505060405180910390fd5b600060066000848152602001908152602001600020600083815260200190815260200160002081905550600160046000848152602001908152602001600020600083815260200190815260200160002060006101000a81548160ff021916908315150217905550600160056000806000815481106102f357fe5b9060005260206000200160009054906101000a900473ffffffffffffffffffffffffffffffffffffffff1673ffffffffffffffffffffffffffffffffffffffff1673ffffffffffffffffffffffffffffffffffffffff16815260200190815260200160002060006101000a81548160ff0219169083151502179055506000600560008060018154811061038257fe5b9060005260206000200160009054906101000a900473ffffffffffffffffffffffffffffffffffffffff1673ffffffffffffffffffffffffffffffffffffffff1673ffffffffffffffffffffffffffffffffffffffff16815260200190815260200160002060006101000a81548160ff0219169083151502179055505b600060018154811061040d57fe5b9060005260206000200160009054906101000a900473ffffffffffffffffffffffffffffffffffffffff1673ffffffffffffffffffffffffffffffffffffffff163373ffffffffffffffffffffffffffffffffffffffff1614156106b157600560003373ffffffffffffffffffffffffffffffffffffffff1673ffffffffffffffffffffffffffffffffffffffff16815260200190815260200160002060009054906101000a900460ff161561052b576040517f08c379a00000000000000000000000000000000000000000000000000000000081526004018080602001828103825260138152602001807f706c61796572322063616e6e6f74206d6f76650000000000000000000000000081525060200191505060405180910390fd5b600160066000848152602001908152602001600020600083815260200190815260200160002081905550600160046000848152602001908152602001600020600083815260200190815260200160002060006101000a81548160ff021916908315150217905550600160056000806001815481106105a557fe5b9060005260206000200160009054906101000a900473ffffffffffffffffffffffffffffffffffffffff1673ffffffffffffffffffffffffffffffffffffffff1673ffffffffffffffffffffffffffffffffffffffff16815260200190815260200160002060006101000a81548160ff0219169083151502179055506000600560008060008154811061063457fe5b9060005260206000200160009054906101000a900473ffffffffffffffffffffffffffffffffffffffff1673ffffffffffffffffffffffffffffffffffffffff1673ffffffffffffffffffffffffffffffffffffffff16815260200190815260200160002060006101000a81548160ff0219169083151502179055505b5050565b6000819080600181540180825580915050600190039060005260206000200160009091909190916101000a81548173ffffffffffffffffffffffffffffffffffffffff021916908373ffffffffffffffffffffffffffffffffffffffff16021790555050565b60606107278383610a6b565b600160006101000a81548173ffffffffffffffffffffffffffffffffffffffff021916908373ffffffffffffffffffffffffffffffffffffffff1602179055506000808154811061077457fe5b9060005260206000200160009054906101000a900473ffffffffffffffffffffffffffffffffffffffff1673ffffffffffffffffffffffffffffffffffffffff16600160009054906101000a900473ffffffffffffffffffffffffffffffffffffffff1673ffffffffffffffffffffffffffffffffffffffff1614156108a0577fc94e26bc371c19185b9e577ef339d2a5bca910d48092cbb160550b311ddd8d98600160009054906101000a900473ffffffffffffffffffffffffffffffffffffffff16604051808273ffffffffffffffffffffffffffffffffffffffff16815260200191505060405180910390a16040518060400160405280601681526020017f57696e6e657220697320666972737420706c61796572000000000000000000008152509050610a65565b60006001815481106108ae57fe5b9060005260206000200160009054906101000a900473ffffffffffffffffffffffffffffffffffffffff1673ffffffffffffffffffffffffffffffffffffffff16600160009054906101000a900473ffffffffffffffffffffffffffffffffffffffff1673ffffffffffffffffffffffffffffffffffffffff1614156109da577fc94e26bc371c19185b9e577ef339d2a5bca910d48092cbb160550b311ddd8d98600160009054906101000a900473ffffffffffffffffffffffffffffffffffffffff16604051808273ffffffffffffffffffffffffffffffffffffffff16815260200191505060405180910390a16040518060400160405280601781526020017f57696e6e6572206973207365636f6e6420706c617965720000000000000000008152509050610a65565b7fc94e26bc371c19185b9e577ef339d2a5bca910d48092cbb160550b311ddd8d98600160009054906101000a900473ffffffffffffffffffffffffffffffffffffffff16604051808273ffffffffffffffffffffffffffffffffffffffff16815260200191505060405180910390a16040518060600160405280602a8152602001610d1c602a913990505b92915050565b600080600090506000805b85811015610bb95760005b85811015610ba3576000600660008481526020019081526020016000206000838152602001908152602001600020541415610ac3578380600101945050610b0f565b86841415610b0e5760008081548110610ad857fe5b9060005260206000200160009054906101000a900473ffffffffffffffffffffffffffffffffffffffff16945050505050610bc8565b5b6001600660008481526020019081526020016000206000838152602001908152602001600020541415610b49578280600101935050610b96565b86831415610b95576000600181548110610b5f57fe5b9060005260206000200160009054906101000a900473ffffffffffffffffffffffffffffffffffffffff16945050505050610bc8565b5b8080600101915050610a81565b5060009250600091508080600101915050610a76565b50610bc48585610bce565b5050505b92915050565b6000806000905060008060005b8684108015610be957508583105b15610d10576000600660008681526020019081526020016000206000858152602001908152602001600020541415610c28578180600101925050610c74565b86821415610c735760008081548110610c3d57fe5b9060005260206000200160009054906101000a900473ffffffffffffffffffffffffffffffffffffffff16945050505050610d15565b5b6001600660008681526020019081526020016000206000858152602001908152602001600020541415610cae578080600101915050610cfb565b86811415610cfa576000600181548110610cc457fe5b9060005260206000200160009054906101000a900473ffffffffffffffffffffffffffffffffffffffff16945050505050610d15565b5b83806001019450508280600101935050610bdb565b505050505b9291505056fe546965206265747765656e20666972737420706c6179657220616e64207365636f6e6420706c6179657270617274206f66206669656c64206d757374206e6f74206265206f63637570696564a26469706673582212206454827587c52313817ce61408da575fbdfaa3a1c3e1efa6af0c88bba671a50364736f6c63430007030033",
  "linkReferences": {},
  "deployedLinkReferences": {}
}